{
  "_format": "hh-sol-artifact-1",
  "contractName": "Dex",
  "sourceName": "contracts/Dex.sol",
  "abi": [
    {
      "inputs": [
        {
          "internalType": "address",
          "name": "_factoryAddress",
          "type": "address"
        },
        {
          "internalType": "address",
          "name": "_USDC",
          "type": "address"
        },
        {
          "internalType": "address",
          "name": "_ARGC",
          "type": "address"
        }
      ],
      "stateMutability": "nonpayable",
      "type": "constructor"
    },
    {
      "inputs": [
        {
          "internalType": "uint256",
          "name": "_amount",
          "type": "uint256"
        }
      ],
      "name": "addLiquidity",
      "outputs": [],
      "stateMutability": "payable",
      "type": "function"
    },
    {
      "inputs": [],
      "name": "factoryAddress",
      "outputs": [
        {
          "internalType": "address",
          "name": "",
          "type": "address"
        }
      ],
      "stateMutability": "view",
      "type": "function"
    },
    {
      "inputs": [],
      "name": "getPairAddress",
      "outputs": [
        {
          "internalType": "address",
          "name": "",
          "type": "address"
        }
      ],
      "stateMutability": "view",
      "type": "function"
    },
    {
      "inputs": [
        {
          "internalType": "uint256",
          "name": "_amount",
          "type": "uint256"
        },
        {
          "internalType": "address",
          "name": "_to",
          "type": "address"
        }
      ],
      "name": "swapUSDCForARGC",
      "outputs": [],
      "stateMutability": "nonpayable",
      "type": "function"
    },
    {
      "inputs": [
        {
          "internalType": "address",
          "name": "_sender",
          "type": "address"
        },
        {
          "internalType": "uint256",
          "name": "_amount0",
          "type": "uint256"
        },
        {
          "internalType": "uint256",
          "name": "_amount1",
          "type": "uint256"
        },
        {
          "internalType": "bytes",
          "name": "_data",
          "type": "bytes"
        }
      ],
      "name": "uniswapV2Call",
      "outputs": [],
      "stateMutability": "nonpayable",
      "type": "function"
    }
  ],
  "bytecode": "0x60806040523480156200001157600080fd5b506040516200159d3803806200159d83398181016040528101906200003791906200040a565b82600260006101000a81548173ffffffffffffffffffffffffffffffffffffffff021916908373ffffffffffffffffffffffffffffffffffffffff160217905550816000806101000a81548173ffffffffffffffffffffffffffffffffffffffff021916908373ffffffffffffffffffffffffffffffffffffffff16021790555080600160006101000a81548173ffffffffffffffffffffffffffffffffffffffff021916908373ffffffffffffffffffffffffffffffffffffffff160217905550600260009054906101000a900473ffffffffffffffffffffffffffffffffffffffff1673ffffffffffffffffffffffffffffffffffffffff1663e6a4390560008054906101000a900473ffffffffffffffffffffffffffffffffffffffff16600160009054906101000a900473ffffffffffffffffffffffffffffffffffffffff166040518363ffffffff1660e01b81526004016200019a92919062000471565b60206040518083038186803b158015620001b357600080fd5b505afa158015620001c8573d6000803e3d6000fd5b505050506040513d601f19601f82011682018060405250810190620001ee9190620003de565b600360006101000a81548173ffffffffffffffffffffffffffffffffffffffff021916908373ffffffffffffffffffffffffffffffffffffffff160217905550600073ffffffffffffffffffffffffffffffffffffffff16600360009054906101000a900473ffffffffffffffffffffffffffffffffffffffff1673ffffffffffffffffffffffffffffffffffffffff161415620003be57600260009054906101000a900473ffffffffffffffffffffffffffffffffffffffff1673ffffffffffffffffffffffffffffffffffffffff1663c9c6539660008054906101000a900473ffffffffffffffffffffffffffffffffffffffff16600160009054906101000a900473ffffffffffffffffffffffffffffffffffffffff166040518363ffffffff1660e01b81526004016200032792919062000471565b602060405180830381600087803b1580156200034257600080fd5b505af115801562000357573d6000803e3d6000fd5b505050506040513d601f19601f820116820180604052508101906200037d9190620003de565b600360006101000a81548173ffffffffffffffffffffffffffffffffffffffff021916908373ffffffffffffffffffffffffffffffffffffffff1602179055505b505050620004ec565b600081519050620003d881620004d2565b92915050565b600060208284031215620003f157600080fd5b60006200040184828501620003c7565b91505092915050565b6000806000606084860312156200042057600080fd5b60006200043086828701620003c7565b93505060206200044386828701620003c7565b92505060406200045686828701620003c7565b9150509250925092565b6200046b816200049e565b82525050565b600060408201905062000488600083018562000460565b62000497602083018462000460565b9392505050565b6000620004ab82620004b2565b9050919050565b600073ffffffffffffffffffffffffffffffffffffffff82169050919050565b620004dd816200049e565b8114620004e957600080fd5b50565b6110a180620004fc6000396000f3fe60806040526004361061004a5760003560e01c806310d1e85c1461004f57806351c6590a146100785780638d5f81e214610094578063966dae0e146100bf578063a430a4bf146100ea575b600080fd5b34801561005b57600080fd5b5061007660048036038101906100719190610b7c565b610113565b005b610092600480360381019061008d9190610c25565b610349565b005b3480156100a057600080fd5b506100a96105be565b6040516100b69190610d6b565b60405180910390f35b3480156100cb57600080fd5b506100d46105e8565b6040516100e19190610d6b565b60405180910390f35b3480156100f657600080fd5b50610111600480360381019061010c9190610c77565b61060e565b005b600360009054906101000a900473ffffffffffffffffffffffffffffffffffffffff1673ffffffffffffffffffffffffffffffffffffffff163373ffffffffffffffffffffffffffffffffffffffff16146101a3576040517f08c379a000000000000000000000000000000000000000000000000000000000815260040161019a90610daf565b60405180910390fd5b3073ffffffffffffffffffffffffffffffffffffffff168573ffffffffffffffffffffffffffffffffffffffff1614610211576040517f08c379a000000000000000000000000000000000000000000000000000000000815260040161020890610dcf565b60405180910390fd5b60008083838101906102239190610b40565b91509150600060016103e560038461023b9190610efd565b6102459190610ecc565b61024f9190610e76565b90506000818361025f9190610e76565b905061026a8361098d565b6102738861098d565b61027c8761098d565b6102858261098d565b61028e8161098d565b8373ffffffffffffffffffffffffffffffffffffffff1663a9059cbb600360009054906101000a900473ffffffffffffffffffffffffffffffffffffffff16836040518363ffffffff1660e01b81526004016102eb929190610d86565b602060405180830381600087803b15801561030557600080fd5b505af1158015610319573d6000803e3d6000fd5b505050506040513d601f19601f8201168201806040525081019061033d9190610bfc565b50505050505050505050565b60008054906101000a900473ffffffffffffffffffffffffffffffffffffffff1673ffffffffffffffffffffffffffffffffffffffff1663a9059cbb600360009054906101000a900473ffffffffffffffffffffffffffffffffffffffff16836040518363ffffffff1660e01b81526004016103c6929190610d86565b602060405180830381600087803b1580156103e057600080fd5b505af11580156103f4573d6000803e3d6000fd5b505050506040513d601f19601f820116820180604052508101906104189190610bfc565b50600160009054906101000a900473ffffffffffffffffffffffffffffffffffffffff1673ffffffffffffffffffffffffffffffffffffffff1663a9059cbb600360009054906101000a900473ffffffffffffffffffffffffffffffffffffffff16836040518363ffffffff1660e01b8152600401610498929190610d86565b602060405180830381600087803b1580156104b257600080fd5b505af11580156104c6573d6000803e3d6000fd5b505050506040513d601f19601f820116820180604052508101906104ea9190610bfc565b50600360009054906101000a900473ffffffffffffffffffffffffffffffffffffffff1673ffffffffffffffffffffffffffffffffffffffff16636a627842600360009054906101000a900473ffffffffffffffffffffffffffffffffffffffff166040518263ffffffff1660e01b81526004016105689190610d6b565b602060405180830381600087803b15801561058257600080fd5b505af1158015610596573d6000803e3d6000fd5b505050506040513d601f19601f820116820180604052508101906105ba9190610c4e565b5050565b6000600360009054906101000a900473ffffffffffffffffffffffffffffffffffffffff16905090565b600260009054906101000a900473ffffffffffffffffffffffffffffffffffffffff1681565b600073ffffffffffffffffffffffffffffffffffffffff16600360009054906101000a900473ffffffffffffffffffffffffffffffffffffffff1673ffffffffffffffffffffffffffffffffffffffff1614156106a0576040517f08c379a000000000000000000000000000000000000000000000000000000000815260040161069790610daf565b60405180910390fd5b6000600360009054906101000a900473ffffffffffffffffffffffffffffffffffffffff1673ffffffffffffffffffffffffffffffffffffffff16630dfe16816040518163ffffffff1660e01b815260040160206040518083038186803b15801561070a57600080fd5b505afa15801561071e573d6000803e3d6000fd5b505050506040513d601f19601f820116820180604052508101906107429190610b17565b90506000600360009054906101000a900473ffffffffffffffffffffffffffffffffffffffff1673ffffffffffffffffffffffffffffffffffffffff1663d21220a76040518163ffffffff1660e01b815260040160206040518083038186803b1580156107ae57600080fd5b505afa1580156107c2573d6000803e3d6000fd5b505050506040513d601f19601f820116820180604052508101906107e69190610b17565b905060008273ffffffffffffffffffffffffffffffffffffffff16600160009054906101000a900473ffffffffffffffffffffffffffffffffffffffff1673ffffffffffffffffffffffffffffffffffffffff1614610846576000610848565b845b905060008273ffffffffffffffffffffffffffffffffffffffff16600160009054906101000a900473ffffffffffffffffffffffffffffffffffffffff1673ffffffffffffffffffffffffffffffffffffffff16146108a85760006108aa565b855b905060008060009054906101000a900473ffffffffffffffffffffffffffffffffffffffff16876040516020016108e2929190610d86565b6040516020818303038152906040529050600360009054906101000a900473ffffffffffffffffffffffffffffffffffffffff1673ffffffffffffffffffffffffffffffffffffffff1663022c0d9f8484896040518463ffffffff1660e01b815260040161095293929190610e0a565b600060405180830381600087803b15801561096c57600080fd5b505af1158015610980573d6000803e3d6000fd5b5050505050505050505050565b610a23816040516024016109a19190610def565b6040516020818303038152906040527ff82c50f1000000000000000000000000000000000000000000000000000000007bffffffffffffffffffffffffffffffffffffffffffffffffffffffff19166020820180517bffffffffffffffffffffffffffffffffffffffffffffffffffffffff8381831617835250505050610a26565b50565b60008151905060006a636f6e736f6c652e6c6f679050602083016000808483855afa5050505050565b600081359050610a5e8161100f565b92915050565b600081519050610a738161100f565b92915050565b600081359050610a8881611026565b92915050565b600081519050610a9d8161103d565b92915050565b60008083601f840112610ab557600080fd5b8235905067ffffffffffffffff811115610ace57600080fd5b602083019150836001820283011115610ae657600080fd5b9250929050565b600081359050610afc81611054565b92915050565b600081519050610b1181611054565b92915050565b600060208284031215610b2957600080fd5b6000610b3784828501610a64565b91505092915050565b60008060408385031215610b5357600080fd5b6000610b6185828601610a79565b9250506020610b7285828601610aed565b9150509250929050565b600080600080600060808688031215610b9457600080fd5b6000610ba288828901610a4f565b9550506020610bb388828901610aed565b9450506040610bc488828901610aed565b935050606086013567ffffffffffffffff811115610be157600080fd5b610bed88828901610aa3565b92509250509295509295909350565b600060208284031215610c0e57600080fd5b6000610c1c84828501610a8e565b91505092915050565b600060208284031215610c3757600080fd5b6000610c4584828501610aed565b91505092915050565b600060208284031215610c6057600080fd5b6000610c6e84828501610b02565b91505092915050565b60008060408385031215610c8a57600080fd5b6000610c9885828601610aed565b9250506020610ca985828601610a4f565b9150509250929050565b610cbc81610f57565b82525050565b6000610ccf600583610e65565b91507f21706169720000000000000000000000000000000000000000000000000000006000830152602082019050919050565b6000610d0f600783610e65565b91507f2173656e646572000000000000000000000000000000000000000000000000006000830152602082019050919050565b6000610d4f600083610e54565b9150600082019050919050565b610d6581610fa7565b82525050565b6000602082019050610d806000830184610cb3565b92915050565b6000604082019050610d9b6000830185610cb3565b610da86020830184610d5c565b9392505050565b60006020820190508181036000830152610dc881610cc2565b9050919050565b60006020820190508181036000830152610de881610d02565b9050919050565b6000602082019050610e046000830184610d5c565b92915050565b6000608082019050610e1f6000830186610d5c565b610e2c6020830185610d5c565b610e396040830184610cb3565b8181036060830152610e4a81610d42565b9050949350505050565b600082825260208201905092915050565b600082825260208201905092915050565b6000610e8182610fa7565b9150610e8c83610fa7565b9250827fffffffffffffffffffffffffffffffffffffffffffffffffffffffffffffffff03821115610ec157610ec0610fb1565b5b828201905092915050565b6000610ed782610fa7565b9150610ee283610fa7565b925082610ef257610ef1610fe0565b5b828204905092915050565b6000610f0882610fa7565b9150610f1383610fa7565b9250817fffffffffffffffffffffffffffffffffffffffffffffffffffffffffffffffff0483118215151615610f4c57610f4b610fb1565b5b828202905092915050565b6000610f6282610f87565b9050919050565b6000610f7482610f87565b9050919050565b60008115159050919050565b600073ffffffffffffffffffffffffffffffffffffffff82169050919050565b6000819050919050565b7f4e487b7100000000000000000000000000000000000000000000000000000000600052601160045260246000fd5b7f4e487b7100000000000000000000000000000000000000000000000000000000600052601260045260246000fd5b61101881610f57565b811461102357600080fd5b50565b61102f81610f69565b811461103a57600080fd5b50565b61104681610f7b565b811461105157600080fd5b50565b61105d81610fa7565b811461106857600080fd5b5056fea26469706673582212203b2b26ed3cb1bcec7e4f0587cae453e0a49a10f1ace3e72b180f4b2c7a721e0764736f6c63430008000033",
  "linkReferences": {},
  "deployedLinkReferences": {}
}