{
  "_format": "hh-sol-artifact-1",
  "contractName": "Dex",
  "sourceName": "contracts/Dex.sol",
  "abi": [
    {
      "inputs": [
        {
          "internalType": "address",
          "name": "_factoryAddress",
          "type": "address"
        }
      ],
      "stateMutability": "nonpayable",
      "type": "constructor"
    },
    {
      "inputs": [],
      "name": "factoryAddress",
      "outputs": [
        {
          "internalType": "address",
          "name": "",
          "type": "address"
        }
      ],
      "stateMutability": "view",
      "type": "function"
    },
    {
      "inputs": [
        {
          "internalType": "uint256",
          "name": "_amount",
          "type": "uint256"
        }
      ],
      "name": "swapEthForUSDC",
      "outputs": [],
      "stateMutability": "nonpayable",
      "type": "function"
    },
    {
      "inputs": [
        {
          "internalType": "uint256",
          "name": "_amount",
          "type": "uint256"
        }
      ],
      "name": "testSwap",
      "outputs": [],
      "stateMutability": "nonpayable",
      "type": "function"
    },
    {
      "inputs": [
        {
          "internalType": "address",
          "name": "_sender",
          "type": "address"
        },
        {
          "internalType": "uint256",
          "name": "_amount0",
          "type": "uint256"
        },
        {
          "internalType": "uint256",
          "name": "_amount1",
          "type": "uint256"
        },
        {
          "internalType": "bytes",
          "name": "_data",
          "type": "bytes"
        }
      ],
      "name": "uniswapV2Call",
      "outputs": [],
      "stateMutability": "nonpayable",
      "type": "function"
    }
  ],
  "bytecode": "0x60806040523480156200001157600080fd5b50604051620018a2380380620018a2833981810160405281019062000037919062000095565b806000806101000a81548173ffffffffffffffffffffffffffffffffffffffff021916908373ffffffffffffffffffffffffffffffffffffffff160217905550506200010f565b6000815190506200008f81620000f5565b92915050565b600060208284031215620000a857600080fd5b6000620000b8848285016200007e565b91505092915050565b6000620000ce82620000d5565b9050919050565b600073ffffffffffffffffffffffffffffffffffffffff82169050919050565b6200010081620000c1565b81146200010c57600080fd5b50565b611783806200011f6000396000f3fe608060405234801561001057600080fd5b506004361061004c5760003560e01c8063099fa0f21461005157806310d1e85c1461006d5780632cbea2b014610089578063966dae0e146100a5575b600080fd5b61006b600480360381019061006691906111b2565b6100c3565b005b61008760048036038101906100829190611109565b610648565b005b6100a3600480360381019061009e91906111b2565b6109f2565b005b6100ad610dd9565b6040516100ba91906112eb565b60405180910390f35b60008060009054906101000a900473ffffffffffffffffffffffffffffffffffffffff1673ffffffffffffffffffffffffffffffffffffffff1663e6a4390573a0b86991c6218b36c1d19d4a2e9eb0ce3606eb4873c02aaa39b223fe8d0a0e5c4f27ead9083c756cc26040518363ffffffff1660e01b8152600401610149929190611306565b60206040518083038186803b15801561016157600080fd5b505afa158015610175573d6000803e3d6000fd5b505050506040513d601f19601f8201168201806040525081019061019991906110a4565b9050600073ffffffffffffffffffffffffffffffffffffffff168173ffffffffffffffffffffffffffffffffffffffff1614156102a85760008054906101000a900473ffffffffffffffffffffffffffffffffffffffff1673ffffffffffffffffffffffffffffffffffffffff1663c9c6539673a0b86991c6218b36c1d19d4a2e9eb0ce3606eb4873c02aaa39b223fe8d0a0e5c4f27ead9083c756cc26040518363ffffffff1660e01b8152600401610253929190611306565b602060405180830381600087803b15801561026d57600080fd5b505af1158015610281573d6000803e3d6000fd5b505050506040513d601f19601f820116820180604052508101906102a591906110a4565b90505b600073ffffffffffffffffffffffffffffffffffffffff168173ffffffffffffffffffffffffffffffffffffffff161415610318576040517f08c379a000000000000000000000000000000000000000000000000000000000815260040161030f9061137a565b60405180910390fd5b60008173ffffffffffffffffffffffffffffffffffffffff16630dfe16816040518163ffffffff1660e01b815260040160206040518083038186803b15801561036057600080fd5b505afa158015610374573d6000803e3d6000fd5b505050506040513d601f19601f8201168201806040525081019061039891906110a4565b905060008273ffffffffffffffffffffffffffffffffffffffff1663d21220a76040518163ffffffff1660e01b815260040160206040518083038186803b1580156103e257600080fd5b505afa1580156103f6573d6000803e3d6000fd5b505050506040513d601f19601f8201168201806040525081019061041a91906110a4565b905060008273ffffffffffffffffffffffffffffffffffffffff1673c02aaa39b223fe8d0a0e5c4f27ead9083c756cc273ffffffffffffffffffffffffffffffffffffffff161461046c57600061046e565b845b905060008273ffffffffffffffffffffffffffffffffffffffff1673c02aaa39b223fe8d0a0e5c4f27ead9083c756cc273ffffffffffffffffffffffffffffffffffffffff16146104c05760006104c2565b855b9050600073a0b86991c6218b36c1d19d4a2e9eb0ce3606eb48876040516020016104ed92919061132f565b604051602081830303815290604052905061051f60405180606001604052806025815260200161170260259139610dfd565b61052833610e96565b61054960405180606001604052806023815260200161169360239139610dfd565b61055286610e96565b6105736040518060600160405280602581526020016116dd60259139610dfd565b61059460405180606001604052806027815260200161172760279139610dfd565b61059d85610e96565b6105ba73a0b86991c6218b36c1d19d4a2e9eb0ce3606eb48610e96565b6105db6040518060600160405280602781526020016116b660279139610dfd565b6105e484610e96565b61060173c02aaa39b223fe8d0a0e5c4f27ead9083c756cc2610e96565b61063f6040518060400160405280601f81526020017f2d2d2d2d2d2d2d2d2d2d2d2d2d2d2d2d2d2d2d2d2d2d2d2d2d2d2d2d2d2d2d00815250610dfd565b50505050505050565b60003373ffffffffffffffffffffffffffffffffffffffff16630dfe16816040518163ffffffff1660e01b815260040160206040518083038186803b15801561069057600080fd5b505afa1580156106a4573d6000803e3d6000fd5b505050506040513d601f19601f820116820180604052508101906106c891906110a4565b905060003373ffffffffffffffffffffffffffffffffffffffff1663d21220a76040518163ffffffff1660e01b815260040160206040518083038186803b15801561071257600080fd5b505afa158015610726573d6000803e3d6000fd5b505050506040513d601f19601f8201168201806040525081019061074a91906110a4565b90506000600160009054906101000a900473ffffffffffffffffffffffffffffffffffffffff1673ffffffffffffffffffffffffffffffffffffffff1663e6a4390584846040518363ffffffff1660e01b81526004016107ab929190611306565b60206040518083038186803b1580156107c357600080fd5b505afa1580156107d7573d6000803e3d6000fd5b505050506040513d601f19601f820116820180604052508101906107fb91906110a4565b90508073ffffffffffffffffffffffffffffffffffffffff163373ffffffffffffffffffffffffffffffffffffffff161461086b576040517f08c379a00000000000000000000000000000000000000000000000000000000081526004016108629061137a565b60405180910390fd5b3073ffffffffffffffffffffffffffffffffffffffff168873ffffffffffffffffffffffffffffffffffffffff16146108d9576040517f08c379a00000000000000000000000000000000000000000000000000000000081526004016108d09061139a565b60405180910390fd5b60008086868101906108eb91906110cd565b91509150600060016103e560038461090391906114e0565b61090d91906114af565b6109179190611459565b9050600081836109279190611459565b905061093283610f2f565b61093b8b610f2f565b6109448a610f2f565b61094d82610f2f565b61095681610f2f565b8373ffffffffffffffffffffffffffffffffffffffff1663a9059cbb86836040518363ffffffff1660e01b815260040161099192919061132f565b602060405180830381600087803b1580156109ab57600080fd5b505af11580156109bf573d6000803e3d6000fd5b505050506040513d601f19601f820116820180604052508101906109e39190611189565b50505050505050505050505050565b610a306040518060400160405280600481526020017f6869696900000000000000000000000000000000000000000000000000000000815250610dfd565b6000600160009054906101000a900473ffffffffffffffffffffffffffffffffffffffff1673ffffffffffffffffffffffffffffffffffffffff1663e6a4390573a0b86991c6218b36c1d19d4a2e9eb0ce3606eb4873c02aaa39b223fe8d0a0e5c4f27ead9083c756cc26040518363ffffffff1660e01b8152600401610ab7929190611306565b60206040518083038186803b158015610acf57600080fd5b505afa158015610ae3573d6000803e3d6000fd5b505050506040513d601f19601f82011682018060405250810190610b0791906110a4565b9050600073ffffffffffffffffffffffffffffffffffffffff168173ffffffffffffffffffffffffffffffffffffffff161415610b79576040517f08c379a0000000000000000000000000000000000000000000000000000000008152600401610b709061137a565b60405180910390fd5b60008173ffffffffffffffffffffffffffffffffffffffff16630dfe16816040518163ffffffff1660e01b815260040160206040518083038186803b158015610bc157600080fd5b505afa158015610bd5573d6000803e3d6000fd5b505050506040513d601f19601f82011682018060405250810190610bf991906110a4565b905060008273ffffffffffffffffffffffffffffffffffffffff1663d21220a76040518163ffffffff1660e01b815260040160206040518083038186803b158015610c4357600080fd5b505afa158015610c57573d6000803e3d6000fd5b505050506040513d601f19601f82011682018060405250810190610c7b91906110a4565b905060008273ffffffffffffffffffffffffffffffffffffffff1673c02aaa39b223fe8d0a0e5c4f27ead9083c756cc273ffffffffffffffffffffffffffffffffffffffff1614610ccd576000610ccf565b845b905060008273ffffffffffffffffffffffffffffffffffffffff1673c02aaa39b223fe8d0a0e5c4f27ead9083c756cc273ffffffffffffffffffffffffffffffffffffffff1614610d21576000610d23565b855b9050600073a0b86991c6218b36c1d19d4a2e9eb0ce3606eb4887604051602001610d4e92919061132f565b60405160208183030381529060405290508573ffffffffffffffffffffffffffffffffffffffff1663022c0d9f848430856040518563ffffffff1660e01b8152600401610d9e94939291906113d5565b600060405180830381600087803b158015610db857600080fd5b505af1158015610dcc573d6000803e3d6000fd5b5050505050505050505050565b60008054906101000a900473ffffffffffffffffffffffffffffffffffffffff1681565b610e9381604051602401610e119190611358565b6040516020818303038152906040527f41304fac000000000000000000000000000000000000000000000000000000007bffffffffffffffffffffffffffffffffffffffffffffffffffffffff19166020820180517bffffffffffffffffffffffffffffffffffffffffffffffffffffffff8381831617835250505050610fc8565b50565b610f2c81604051602401610eaa91906112eb565b6040516020818303038152906040527f2c2ecbc2000000000000000000000000000000000000000000000000000000007bffffffffffffffffffffffffffffffffffffffffffffffffffffffff19166020820180517bffffffffffffffffffffffffffffffffffffffffffffffffffffffff8381831617835250505050610fc8565b50565b610fc581604051602401610f4391906113ba565b6040516020818303038152906040527ff82c50f1000000000000000000000000000000000000000000000000000000007bffffffffffffffffffffffffffffffffffffffffffffffffffffffff19166020820180517bffffffffffffffffffffffffffffffffffffffffffffffffffffffff8381831617835250505050610fc8565b50565b60008151905060006a636f6e736f6c652e6c6f679050602083016000808483855afa5050505050565b60008135905061100081611636565b92915050565b60008151905061101581611636565b92915050565b60008135905061102a8161164d565b92915050565b60008151905061103f81611664565b92915050565b60008083601f84011261105757600080fd5b8235905067ffffffffffffffff81111561107057600080fd5b60208301915083600182028301111561108857600080fd5b9250929050565b60008135905061109e8161167b565b92915050565b6000602082840312156110b657600080fd5b60006110c484828501611006565b91505092915050565b600080604083850312156110e057600080fd5b60006110ee8582860161101b565b92505060206110ff8582860161108f565b9150509250929050565b60008060008060006080868803121561112157600080fd5b600061112f88828901610ff1565b95505060206111408882890161108f565b94505060406111518882890161108f565b935050606086013567ffffffffffffffff81111561116e57600080fd5b61117a88828901611045565b92509250509295509295909350565b60006020828403121561119b57600080fd5b60006111a984828501611030565b91505092915050565b6000602082840312156111c457600080fd5b60006111d28482850161108f565b91505092915050565b6111e48161153a565b82525050565b60006111f582611421565b6111ff8185611437565b935061120f818560208601611594565b61121881611625565b840191505092915050565b600061122e8261142c565b6112388185611448565b9350611248818560208601611594565b61125181611625565b840191505092915050565b6000611269600583611448565b91507f21706169720000000000000000000000000000000000000000000000000000006000830152602082019050919050565b60006112a9600783611448565b91507f2173656e646572000000000000000000000000000000000000000000000000006000830152602082019050919050565b6112e58161158a565b82525050565b600060208201905061130060008301846111db565b92915050565b600060408201905061131b60008301856111db565b61132860208301846111db565b9392505050565b600060408201905061134460008301856111db565b61135160208301846112dc565b9392505050565b600060208201905081810360008301526113728184611223565b905092915050565b600060208201905081810360008301526113938161125c565b9050919050565b600060208201905081810360008301526113b38161129c565b9050919050565b60006020820190506113cf60008301846112dc565b92915050565b60006080820190506113ea60008301876112dc565b6113f760208301866112dc565b61140460408301856111db565b818103606083015261141681846111ea565b905095945050505050565b600081519050919050565b600081519050919050565b600082825260208201905092915050565b600082825260208201905092915050565b60006114648261158a565b915061146f8361158a565b9250827fffffffffffffffffffffffffffffffffffffffffffffffffffffffffffffffff038211156114a4576114a36115c7565b5b828201905092915050565b60006114ba8261158a565b91506114c58361158a565b9250826114d5576114d46115f6565b5b828204905092915050565b60006114eb8261158a565b91506114f68361158a565b9250817fffffffffffffffffffffffffffffffffffffffffffffffffffffffffffffffff048311821515161561152f5761152e6115c7565b5b828202905092915050565b60006115458261156a565b9050919050565b60006115578261156a565b9050919050565b60008115159050919050565b600073ffffffffffffffffffffffffffffffffffffffff82169050919050565b6000819050919050565b60005b838110156115b2578082015181840152602081019050611597565b838111156115c1576000848401525b50505050565b7f4e487b7100000000000000000000000000000000000000000000000000000000600052601160045260246000fd5b7f4e487b7100000000000000000000000000000000000000000000000000000000600052601260045260246000fd5b6000601f19601f8301169050919050565b61163f8161153a565b811461164a57600080fd5b50565b6116568161154c565b811461166157600080fd5b50565b61166d8161155e565b811461167857600080fd5b50565b6116848161158a565b811461168f57600080fd5b5056fe2d2d2d2d2d2d2d2d2d2d2d2d2d2d2d504149522d2d2d2d2d2d2d2d2d2d2d2d2d2d2d2d2d2d2d2d2d2d2d2d2d2d2d2d2d2d544f4b454e2031202d2d2d2d2d2d2d2d2d2d2d2d2d2d2d2d2d2d2d2d2d2d2d2d2d2d2d2d2d2d2d544f4b454e532d2d2d2d2d2d2d2d2d2d2d2d2d2d2d2d2d2d2d2d2d2d2d2d2d2d2d2d2d2d2d2d53454e4445522d2d2d2d2d2d2d2d2d2d2d2d2d2d2d2d2d2d2d2d2d2d2d2d2d2d2d2d2d2d544f4b454e2030202d2d2d2d2d2d2d2d2d2d2d2d2d2d2d2d2da26469706673582212205faa8998dcfc70d6ce7769d702e56b4f056917c090151e5e5204324e674de47664736f6c63430008000033",
  "linkReferences": {},
  "deployedLinkReferences": {}
}