{
  "_format": "hh-sol-artifact-1",
  "contractName": "Dex",
  "sourceName": "contracts/Dex.sol",
  "abi": [
    {
      "inputs": [
        {
          "internalType": "address",
          "name": "_factoryAddress",
          "type": "address"
        }
      ],
      "stateMutability": "nonpayable",
      "type": "constructor"
    },
    {
      "inputs": [],
      "name": "factoryAddress",
      "outputs": [
        {
          "internalType": "address",
          "name": "",
          "type": "address"
        }
      ],
      "stateMutability": "view",
      "type": "function"
    },
    {
      "inputs": [
        {
          "internalType": "uint256",
          "name": "_amount",
          "type": "uint256"
        }
      ],
      "name": "swapEthForUSDC",
      "outputs": [],
      "stateMutability": "nonpayable",
      "type": "function"
    },
    {
      "inputs": [],
      "name": "testSwap",
      "outputs": [],
      "stateMutability": "nonpayable",
      "type": "function"
    },
    {
      "inputs": [
        {
          "internalType": "address",
          "name": "_sender",
          "type": "address"
        },
        {
          "internalType": "uint256",
          "name": "_amount0",
          "type": "uint256"
        },
        {
          "internalType": "uint256",
          "name": "_amount1",
          "type": "uint256"
        },
        {
          "internalType": "bytes",
          "name": "_data",
          "type": "bytes"
        }
      ],
      "name": "uniswapV2Call",
      "outputs": [],
      "stateMutability": "nonpayable",
      "type": "function"
    }
  ],
  "bytecode": "0x60806040523480156200001157600080fd5b506040516200174438038062001744833981810160405281019062000037919062000095565b806000806101000a81548173ffffffffffffffffffffffffffffffffffffffff021916908373ffffffffffffffffffffffffffffffffffffffff160217905550506200010f565b6000815190506200008f81620000f5565b92915050565b600060208284031215620000a857600080fd5b6000620000b8848285016200007e565b91505092915050565b6000620000ce82620000d5565b9050919050565b600073ffffffffffffffffffffffffffffffffffffffff82169050919050565b6200010081620000c1565b81146200010c57600080fd5b50565b611625806200011f6000396000f3fe608060405234801561001057600080fd5b506004361061004c5760003560e01c806310d1e85c146100515780632cbea2b01461006d5780636e008a0314610089578063966dae0e14610093575b600080fd5b61006b60048036038101906100669190611066565b6100b1565b005b6100876004803603810190610082919061110f565b61045b565b005b610091610859565b005b61009b610d36565b6040516100a89190611248565b60405180910390f35b60003373ffffffffffffffffffffffffffffffffffffffff16630dfe16816040518163ffffffff1660e01b815260040160206040518083038186803b1580156100f957600080fd5b505afa15801561010d573d6000803e3d6000fd5b505050506040513d601f19601f820116820180604052508101906101319190611001565b905060003373ffffffffffffffffffffffffffffffffffffffff1663d21220a76040518163ffffffff1660e01b815260040160206040518083038186803b15801561017b57600080fd5b505afa15801561018f573d6000803e3d6000fd5b505050506040513d601f19601f820116820180604052508101906101b39190611001565b90506000600160009054906101000a900473ffffffffffffffffffffffffffffffffffffffff1673ffffffffffffffffffffffffffffffffffffffff1663e6a4390584846040518363ffffffff1660e01b8152600401610214929190611263565b60206040518083038186803b15801561022c57600080fd5b505afa158015610240573d6000803e3d6000fd5b505050506040513d601f19601f820116820180604052508101906102649190611001565b90508073ffffffffffffffffffffffffffffffffffffffff163373ffffffffffffffffffffffffffffffffffffffff16146102d4576040517f08c379a00000000000000000000000000000000000000000000000000000000081526004016102cb906112d7565b60405180910390fd5b3073ffffffffffffffffffffffffffffffffffffffff168873ffffffffffffffffffffffffffffffffffffffff1614610342576040517f08c379a0000000000000000000000000000000000000000000000000000000008152600401610339906112f7565b60405180910390fd5b6000808686810190610354919061102a565b91509150600060016103e560038461036c919061143d565b610376919061140c565b61038091906113b6565b90506000818361039091906113b6565b905061039b83610d5a565b6103a48b610d5a565b6103ad8a610d5a565b6103b682610d5a565b6103bf81610d5a565b8373ffffffffffffffffffffffffffffffffffffffff1663a9059cbb86836040518363ffffffff1660e01b81526004016103fa92919061128c565b602060405180830381600087803b15801561041457600080fd5b505af1158015610428573d6000803e3d6000fd5b505050506040513d601f19601f8201168201806040525081019061044c91906110e6565b50505050505050505050505050565b6000600160009054906101000a900473ffffffffffffffffffffffffffffffffffffffff1673ffffffffffffffffffffffffffffffffffffffff1663e6a4390573a0b86991c6218b36c1d19d4a2e9eb0ce3606eb4873c02aaa39b223fe8d0a0e5c4f27ead9083c756cc26040518363ffffffff1660e01b81526004016104e2929190611263565b60206040518083038186803b1580156104fa57600080fd5b505afa15801561050e573d6000803e3d6000fd5b505050506040513d601f19601f820116820180604052508101906105329190611001565b9050600073ffffffffffffffffffffffffffffffffffffffff168173ffffffffffffffffffffffffffffffffffffffff1614156105a4576040517f08c379a000000000000000000000000000000000000000000000000000000000815260040161059b906112d7565b60405180910390fd5b60008173ffffffffffffffffffffffffffffffffffffffff16630dfe16816040518163ffffffff1660e01b815260040160206040518083038186803b1580156105ec57600080fd5b505afa158015610600573d6000803e3d6000fd5b505050506040513d601f19601f820116820180604052508101906106249190611001565b905060008273ffffffffffffffffffffffffffffffffffffffff1663d21220a76040518163ffffffff1660e01b815260040160206040518083038186803b15801561066e57600080fd5b505afa158015610682573d6000803e3d6000fd5b505050506040513d601f19601f820116820180604052508101906106a69190611001565b905060008273ffffffffffffffffffffffffffffffffffffffff1673c02aaa39b223fe8d0a0e5c4f27ead9083c756cc273ffffffffffffffffffffffffffffffffffffffff16146106f85760006106fa565b845b905060008273ffffffffffffffffffffffffffffffffffffffff1673c02aaa39b223fe8d0a0e5c4f27ead9083c756cc273ffffffffffffffffffffffffffffffffffffffff161461074c57600061074e565b855b9050600073a0b86991c6218b36c1d19d4a2e9eb0ce3606eb488760405160200161077992919061128c565b604051602081830303815290604052905061079386610df3565b61079c85610df3565b6107b973c02aaa39b223fe8d0a0e5c4f27ead9083c756cc2610df3565b6107c284610df3565b6107df73a0b86991c6218b36c1d19d4a2e9eb0ce3606eb48610df3565b8573ffffffffffffffffffffffffffffffffffffffff1663022c0d9f848430856040518563ffffffff1660e01b815260040161081e9493929190611332565b600060405180830381600087803b15801561083857600080fd5b505af115801561084c573d6000803e3d6000fd5b5050505050505050505050565b6108976040518060400160405280600981526020017f686f6c6161616161610000000000000000000000000000000000000000000000815250610e8c565b6000600a905060008060009054906101000a900473ffffffffffffffffffffffffffffffffffffffff1673ffffffffffffffffffffffffffffffffffffffff1663e6a4390573a0b86991c6218b36c1d19d4a2e9eb0ce3606eb4873c02aaa39b223fe8d0a0e5c4f27ead9083c756cc26040518363ffffffff1660e01b8152600401610923929190611263565b60206040518083038186803b15801561093b57600080fd5b505afa15801561094f573d6000803e3d6000fd5b505050506040513d601f19601f820116820180604052508101906109739190611001565b9050600073ffffffffffffffffffffffffffffffffffffffff168173ffffffffffffffffffffffffffffffffffffffff161415610a825760008054906101000a900473ffffffffffffffffffffffffffffffffffffffff1673ffffffffffffffffffffffffffffffffffffffff1663c9c6539673a0b86991c6218b36c1d19d4a2e9eb0ce3606eb4873c02aaa39b223fe8d0a0e5c4f27ead9083c756cc26040518363ffffffff1660e01b8152600401610a2d929190611263565b602060405180830381600087803b158015610a4757600080fd5b505af1158015610a5b573d6000803e3d6000fd5b505050506040513d601f19601f82011682018060405250810190610a7f9190611001565b90505b600073ffffffffffffffffffffffffffffffffffffffff168173ffffffffffffffffffffffffffffffffffffffff161415610af2576040517f08c379a0000000000000000000000000000000000000000000000000000000008152600401610ae9906112d7565b60405180910390fd5b60008173ffffffffffffffffffffffffffffffffffffffff16630dfe16816040518163ffffffff1660e01b815260040160206040518083038186803b158015610b3a57600080fd5b505afa158015610b4e573d6000803e3d6000fd5b505050506040513d601f19601f82011682018060405250810190610b729190611001565b905060008273ffffffffffffffffffffffffffffffffffffffff1663d21220a76040518163ffffffff1660e01b815260040160206040518083038186803b158015610bbc57600080fd5b505afa158015610bd0573d6000803e3d6000fd5b505050506040513d601f19601f82011682018060405250810190610bf49190611001565b905060008273ffffffffffffffffffffffffffffffffffffffff1673c02aaa39b223fe8d0a0e5c4f27ead9083c756cc273ffffffffffffffffffffffffffffffffffffffff1614610c46576000610c48565b845b905060008273ffffffffffffffffffffffffffffffffffffffff1673c02aaa39b223fe8d0a0e5c4f27ead9083c756cc273ffffffffffffffffffffffffffffffffffffffff1614610c9a576000610c9c565b855b9050600073a0b86991c6218b36c1d19d4a2e9eb0ce3606eb4887604051602001610cc792919061128c565b6040516020818303038152906040529050610ce186610df3565b610cea85610df3565b610d0773c02aaa39b223fe8d0a0e5c4f27ead9083c756cc2610df3565b610d1084610df3565b610d2d73a0b86991c6218b36c1d19d4a2e9eb0ce3606eb48610df3565b50505050505050565b60008054906101000a900473ffffffffffffffffffffffffffffffffffffffff1681565b610df081604051602401610d6e9190611317565b6040516020818303038152906040527ff82c50f1000000000000000000000000000000000000000000000000000000007bffffffffffffffffffffffffffffffffffffffffffffffffffffffff19166020820180517bffffffffffffffffffffffffffffffffffffffffffffffffffffffff8381831617835250505050610f25565b50565b610e8981604051602401610e079190611248565b6040516020818303038152906040527f2c2ecbc2000000000000000000000000000000000000000000000000000000007bffffffffffffffffffffffffffffffffffffffffffffffffffffffff19166020820180517bffffffffffffffffffffffffffffffffffffffffffffffffffffffff8381831617835250505050610f25565b50565b610f2281604051602401610ea091906112b5565b6040516020818303038152906040527f41304fac000000000000000000000000000000000000000000000000000000007bffffffffffffffffffffffffffffffffffffffffffffffffffffffff19166020820180517bffffffffffffffffffffffffffffffffffffffffffffffffffffffff8381831617835250505050610f25565b50565b60008151905060006a636f6e736f6c652e6c6f679050602083016000808483855afa5050505050565b600081359050610f5d81611593565b92915050565b600081519050610f7281611593565b92915050565b600081359050610f87816115aa565b92915050565b600081519050610f9c816115c1565b92915050565b60008083601f840112610fb457600080fd5b8235905067ffffffffffffffff811115610fcd57600080fd5b602083019150836001820283011115610fe557600080fd5b9250929050565b600081359050610ffb816115d8565b92915050565b60006020828403121561101357600080fd5b600061102184828501610f63565b91505092915050565b6000806040838503121561103d57600080fd5b600061104b85828601610f78565b925050602061105c85828601610fec565b9150509250929050565b60008060008060006080868803121561107e57600080fd5b600061108c88828901610f4e565b955050602061109d88828901610fec565b94505060406110ae88828901610fec565b935050606086013567ffffffffffffffff8111156110cb57600080fd5b6110d788828901610fa2565b92509250509295509295909350565b6000602082840312156110f857600080fd5b600061110684828501610f8d565b91505092915050565b60006020828403121561112157600080fd5b600061112f84828501610fec565b91505092915050565b61114181611497565b82525050565b60006111528261137e565b61115c8185611394565b935061116c8185602086016114f1565b61117581611582565b840191505092915050565b600061118b82611389565b61119581856113a5565b93506111a58185602086016114f1565b6111ae81611582565b840191505092915050565b60006111c66005836113a5565b91507f21706169720000000000000000000000000000000000000000000000000000006000830152602082019050919050565b60006112066007836113a5565b91507f2173656e646572000000000000000000000000000000000000000000000000006000830152602082019050919050565b611242816114e7565b82525050565b600060208201905061125d6000830184611138565b92915050565b60006040820190506112786000830185611138565b6112856020830184611138565b9392505050565b60006040820190506112a16000830185611138565b6112ae6020830184611239565b9392505050565b600060208201905081810360008301526112cf8184611180565b905092915050565b600060208201905081810360008301526112f0816111b9565b9050919050565b60006020820190508181036000830152611310816111f9565b9050919050565b600060208201905061132c6000830184611239565b92915050565b60006080820190506113476000830187611239565b6113546020830186611239565b6113616040830185611138565b81810360608301526113738184611147565b905095945050505050565b600081519050919050565b600081519050919050565b600082825260208201905092915050565b600082825260208201905092915050565b60006113c1826114e7565b91506113cc836114e7565b9250827fffffffffffffffffffffffffffffffffffffffffffffffffffffffffffffffff0382111561140157611400611524565b5b828201905092915050565b6000611417826114e7565b9150611422836114e7565b92508261143257611431611553565b5b828204905092915050565b6000611448826114e7565b9150611453836114e7565b9250817fffffffffffffffffffffffffffffffffffffffffffffffffffffffffffffffff048311821515161561148c5761148b611524565b5b828202905092915050565b60006114a2826114c7565b9050919050565b60006114b4826114c7565b9050919050565b60008115159050919050565b600073ffffffffffffffffffffffffffffffffffffffff82169050919050565b6000819050919050565b60005b8381101561150f5780820151818401526020810190506114f4565b8381111561151e576000848401525b50505050565b7f4e487b7100000000000000000000000000000000000000000000000000000000600052601160045260246000fd5b7f4e487b7100000000000000000000000000000000000000000000000000000000600052601260045260246000fd5b6000601f19601f8301169050919050565b61159c81611497565b81146115a757600080fd5b50565b6115b3816114a9565b81146115be57600080fd5b50565b6115ca816114bb565b81146115d557600080fd5b50565b6115e1816114e7565b81146115ec57600080fd5b5056fea2646970667358221220a983bf0ad092c7d2380dea47c33b734f625fc6d484b74733e9c8a49afc85dba464736f6c63430008000033",
  "linkReferences": {},
  "deployedLinkReferences": {}
}